{
  "_format": "hh-sol-artifact-1",
  "contractName": "Upload",
  "sourceName": "contracts/Upload.sol",
  "abi": [
    {
      "inputs": [
        {
          "internalType": "address",
          "name": "trustedForwarder",
          "type": "address"
        }
      ],
      "stateMutability": "nonpayable",
      "type": "constructor"
    },
    {
      "inputs": [
        {
          "internalType": "address",
          "name": "_user",
          "type": "address"
        },
        {
          "internalType": "string",
          "name": "url",
          "type": "string"
        }
      ],
      "name": "add",
      "outputs": [],
      "stateMutability": "nonpayable",
      "type": "function"
    },
    {
      "inputs": [
        {
          "internalType": "address",
          "name": "user",
          "type": "address"
        }
      ],
      "name": "allow",
      "outputs": [],
      "stateMutability": "nonpayable",
      "type": "function"
    },
    {
      "inputs": [
        {
          "internalType": "address",
          "name": "user",
          "type": "address"
        }
      ],
      "name": "disallow",
      "outputs": [],
      "stateMutability": "nonpayable",
      "type": "function"
    },
    {
      "inputs": [
        {
          "internalType": "address",
          "name": "_user",
          "type": "address"
        }
      ],
      "name": "display",
      "outputs": [
        {
          "internalType": "string[]",
          "name": "",
          "type": "string[]"
        }
      ],
      "stateMutability": "view",
      "type": "function"
    },
    {
      "inputs": [
        {
          "internalType": "address",
          "name": "forwarder",
          "type": "address"
        }
      ],
      "name": "isTrustedForwarder",
      "outputs": [
        {
          "internalType": "bool",
          "name": "",
          "type": "bool"
        }
      ],
      "stateMutability": "view",
      "type": "function"
    },
    {
      "inputs": [],
      "name": "shareAccess",
      "outputs": [
        {
          "components": [
            {
              "internalType": "address",
              "name": "user",
              "type": "address"
            },
            {
              "internalType": "bool",
              "name": "access",
              "type": "bool"
            }
          ],
          "internalType": "struct Upload.Access[]",
          "name": "",
          "type": "tuple[]"
        }
      ],
      "stateMutability": "view",
      "type": "function"
    },
    {
      "inputs": [],
      "name": "trustedForwarder",
      "outputs": [
        {
          "internalType": "address",
          "name": "",
          "type": "address"
        }
      ],
      "stateMutability": "view",
      "type": "function"
    }
  ],
  "bytecode": "0x60a060405234801562000010575f80fd5b506040516200175b3803806200175b8339818101604052810190620000369190620000d8565b808073ffffffffffffffffffffffffffffffffffffffff1660808173ffffffffffffffffffffffffffffffffffffffff1681525050505062000108565b5f80fd5b5f73ffffffffffffffffffffffffffffffffffffffff82169050919050565b5f620000a28262000077565b9050919050565b620000b48162000096565b8114620000bf575f80fd5b50565b5f81519050620000d281620000a9565b92915050565b5f60208284031215620000f057620000ef62000073565b5b5f620000ff84828501620000c2565b91505092915050565b60805161163a620001215f395f610220015261163a5ff3fe608060405234801561000f575f80fd5b506004361061007b575f3560e01c8063a9ed9cb811610059578063a9ed9cb8146100e9578063bc8bef8114610105578063eb39113f14610123578063ff9913e8146101535761007b565b806336d6da551461007f578063572b6c051461009b5780637da0a877146100cb575b5f80fd5b61009960048036038101906100949190610dfc565b61016f565b005b6100b560048036038101906100b09190610e56565b6101df565b6040516100c29190610e9b565b60405180910390f35b6100d361021d565b6040516100e09190610ec3565b60405180910390f35b61010360048036038101906100fe9190610e56565b610244565b005b61010d61046d565b60405161011a9190610fcf565b60405180910390f35b61013d60048036038101906101389190610e56565b610575565b60405161014a9190611124565b60405180910390f35b61016d60048036038101906101689190610e56565b61078d565b005b5f808373ffffffffffffffffffffffffffffffffffffffff1673ffffffffffffffffffffffffffffffffffffffff1681526020019081526020015f2081908060018154018082558091505060019003905f5260205f20015f9091909190915090816101da9190611347565b505050565b5f6101e861021d565b73ffffffffffffffffffffffffffffffffffffffff168273ffffffffffffffffffffffffffffffffffffffff16149050919050565b5f7f0000000000000000000000000000000000000000000000000000000000000000905090565b5f60015f610250610bde565b73ffffffffffffffffffffffffffffffffffffffff1673ffffffffffffffffffffffffffffffffffffffff1681526020019081526020015f205f8373ffffffffffffffffffffffffffffffffffffffff1673ffffffffffffffffffffffffffffffffffffffff1681526020019081526020015f205f6101000a81548160ff0219169083151502179055505f5b60025f6102e7610bde565b73ffffffffffffffffffffffffffffffffffffffff1673ffffffffffffffffffffffffffffffffffffffff1681526020019081526020015f2080549050811015610469578173ffffffffffffffffffffffffffffffffffffffff1660025f61034d610bde565b73ffffffffffffffffffffffffffffffffffffffff1673ffffffffffffffffffffffffffffffffffffffff1681526020019081526020015f20828154811061039857610397611416565b5b905f5260205f20015f015f9054906101000a900473ffffffffffffffffffffffffffffffffffffffff1673ffffffffffffffffffffffffffffffffffffffff1603610456575f60025f6103e9610bde565b73ffffffffffffffffffffffffffffffffffffffff1673ffffffffffffffffffffffffffffffffffffffff1681526020019081526020015f20828154811061043457610433611416565b5b905f5260205f20015f0160146101000a81548160ff0219169083151502179055505b808061046190611470565b9150506102dc565b5050565b606060025f61047a610bde565b73ffffffffffffffffffffffffffffffffffffffff1673ffffffffffffffffffffffffffffffffffffffff1681526020019081526020015f20805480602002602001604051908101604052809291908181526020015f905b8282101561056c578382905f5260205f20016040518060400160405290815f82015f9054906101000a900473ffffffffffffffffffffffffffffffffffffffff1673ffffffffffffffffffffffffffffffffffffffff1673ffffffffffffffffffffffffffffffffffffffff1681526020015f820160149054906101000a900460ff161515151581525050815260200190600101906104d2565b50505050905090565b606061057f610bde565b73ffffffffffffffffffffffffffffffffffffffff168273ffffffffffffffffffffffffffffffffffffffff161480610640575060015f8373ffffffffffffffffffffffffffffffffffffffff1673ffffffffffffffffffffffffffffffffffffffff1681526020019081526020015f205f6105f9610bde565b73ffffffffffffffffffffffffffffffffffffffff1673ffffffffffffffffffffffffffffffffffffffff1681526020019081526020015f205f9054906101000a900460ff165b61067f576040517f08c379a000000000000000000000000000000000000000000000000000000000815260040161067690611511565b60405180910390fd5b5f808373ffffffffffffffffffffffffffffffffffffffff1673ffffffffffffffffffffffffffffffffffffffff1681526020019081526020015f20805480602002602001604051908101604052809291908181526020015f905b82821015610782578382905f5260205f200180546106f790611171565b80601f016020809104026020016040519081016040528092919081815260200182805461072390611171565b801561076e5780601f106107455761010080835404028352916020019161076e565b820191905f5260205f20905b81548152906001019060200180831161075157829003601f168201915b5050505050815260200190600101906106da565b505050509050919050565b6001805f610799610bde565b73ffffffffffffffffffffffffffffffffffffffff1673ffffffffffffffffffffffffffffffffffffffff1681526020019081526020015f205f8373ffffffffffffffffffffffffffffffffffffffff1673ffffffffffffffffffffffffffffffffffffffff1681526020019081526020015f205f6101000a81548160ff02191690831515021790555060035f61082e610bde565b73ffffffffffffffffffffffffffffffffffffffff1673ffffffffffffffffffffffffffffffffffffffff1681526020019081526020015f205f8273ffffffffffffffffffffffffffffffffffffffff1673ffffffffffffffffffffffffffffffffffffffff1681526020019081526020015f205f9054906101000a900460ff1615610a4a575f5b60025f6108c1610bde565b73ffffffffffffffffffffffffffffffffffffffff1673ffffffffffffffffffffffffffffffffffffffff1681526020019081526020015f2080549050811015610a44578173ffffffffffffffffffffffffffffffffffffffff1660025f610927610bde565b73ffffffffffffffffffffffffffffffffffffffff1673ffffffffffffffffffffffffffffffffffffffff1681526020019081526020015f20828154811061097257610971611416565b5b905f5260205f20015f015f9054906101000a900473ffffffffffffffffffffffffffffffffffffffff1673ffffffffffffffffffffffffffffffffffffffff1603610a3157600160025f6109c4610bde565b73ffffffffffffffffffffffffffffffffffffffff1673ffffffffffffffffffffffffffffffffffffffff1681526020019081526020015f208281548110610a0f57610a0e611416565b5b905f5260205f20015f0160146101000a81548160ff0219169083151502179055505b8080610a3c90611470565b9150506108b6565b50610bdb565b60025f610a55610bde565b73ffffffffffffffffffffffffffffffffffffffff1673ffffffffffffffffffffffffffffffffffffffff1681526020019081526020015f2060405180604001604052808373ffffffffffffffffffffffffffffffffffffffff16815260200160011515815250908060018154018082558091505060019003905f5260205f20015f909190919091505f820151815f015f6101000a81548173ffffffffffffffffffffffffffffffffffffffff021916908373ffffffffffffffffffffffffffffffffffffffff1602179055506020820151815f0160146101000a81548160ff0219169083151502179055505050600160035f610b50610bde565b73ffffffffffffffffffffffffffffffffffffffff1673ffffffffffffffffffffffffffffffffffffffff1681526020019081526020015f205f8373ffffffffffffffffffffffffffffffffffffffff1673ffffffffffffffffffffffffffffffffffffffff1681526020019081526020015f205f6101000a81548160ff0219169083151502179055505b50565b5f805f36905090505f610bef610c46565b9050808210158015610c065750610c05336101df565b5b15610c36575f36828403908092610c1f93929190611537565b90610c2a91906115a6565b60601c92505050610c43565b610c3e610c4e565b925050505b90565b5f6014905090565b5f33905090565b5f604051905090565b5f80fd5b5f80fd5b5f73ffffffffffffffffffffffffffffffffffffffff82169050919050565b5f610c8f82610c66565b9050919050565b610c9f81610c85565b8114610ca9575f80fd5b50565b5f81359050610cba81610c96565b92915050565b5f80fd5b5f80fd5b5f601f19601f8301169050919050565b7f4e487b71000000000000000000000000000000000000000000000000000000005f52604160045260245ffd5b610d0e82610cc8565b810181811067ffffffffffffffff82111715610d2d57610d2c610cd8565b5b80604052505050565b5f610d3f610c55565b9050610d4b8282610d05565b919050565b5f67ffffffffffffffff821115610d6a57610d69610cd8565b5b610d7382610cc8565b9050602081019050919050565b828183375f83830152505050565b5f610da0610d9b84610d50565b610d36565b905082815260208101848484011115610dbc57610dbb610cc4565b5b610dc7848285610d80565b509392505050565b5f82601f830112610de357610de2610cc0565b5b8135610df3848260208601610d8e565b91505092915050565b5f8060408385031215610e1257610e11610c5e565b5b5f610e1f85828601610cac565b925050602083013567ffffffffffffffff811115610e4057610e3f610c62565b5b610e4c85828601610dcf565b9150509250929050565b5f60208284031215610e6b57610e6a610c5e565b5b5f610e7884828501610cac565b91505092915050565b5f8115159050919050565b610e9581610e81565b82525050565b5f602082019050610eae5f830184610e8c565b92915050565b610ebd81610c85565b82525050565b5f602082019050610ed65f830184610eb4565b92915050565b5f81519050919050565b5f82825260208201905092915050565b5f819050602082019050919050565b610f0e81610c85565b82525050565b610f1d81610e81565b82525050565b604082015f820151610f375f850182610f05565b506020820151610f4a6020850182610f14565b50505050565b5f610f5b8383610f23565b60408301905092915050565b5f602082019050919050565b5f610f7d82610edc565b610f878185610ee6565b9350610f9283610ef6565b805f5b83811015610fc2578151610fa98882610f50565b9750610fb483610f67565b925050600181019050610f95565b5085935050505092915050565b5f6020820190508181035f830152610fe78184610f73565b905092915050565b5f81519050919050565b5f82825260208201905092915050565b5f819050602082019050919050565b5f81519050919050565b5f82825260208201905092915050565b5f5b8381101561104f578082015181840152602081019050611034565b5f8484015250505050565b5f61106482611018565b61106e8185611022565b935061107e818560208601611032565b61108781610cc8565b840191505092915050565b5f61109d838361105a565b905092915050565b5f602082019050919050565b5f6110bb82610fef565b6110c58185610ff9565b9350836020820285016110d785611009565b805f5b8581101561111257848403895281516110f38582611092565b94506110fe836110a5565b925060208a019950506001810190506110da565b50829750879550505050505092915050565b5f6020820190508181035f83015261113c81846110b1565b905092915050565b7f4e487b71000000000000000000000000000000000000000000000000000000005f52602260045260245ffd5b5f600282049050600182168061118857607f821691505b60208210810361119b5761119a611144565b5b50919050565b5f819050815f5260205f209050919050565b5f6020601f8301049050919050565b5f82821b905092915050565b5f600883026111fd7fffffffffffffffffffffffffffffffffffffffffffffffffffffffffffffffff826111c2565b61120786836111c2565b95508019841693508086168417925050509392505050565b5f819050919050565b5f819050919050565b5f61124b6112466112418461121f565b611228565b61121f565b9050919050565b5f819050919050565b61126483611231565b61127861127082611252565b8484546111ce565b825550505050565b5f90565b61128c611280565b61129781848461125b565b505050565b5b818110156112ba576112af5f82611284565b60018101905061129d565b5050565b601f8211156112ff576112d0816111a1565b6112d9846111b3565b810160208510156112e8578190505b6112fc6112f4856111b3565b83018261129c565b50505b505050565b5f82821c905092915050565b5f61131f5f1984600802611304565b1980831691505092915050565b5f6113378383611310565b9150826002028217905092915050565b61135082611018565b67ffffffffffffffff81111561136957611368610cd8565b5b6113738254611171565b61137e8282856112be565b5f60209050601f8311600181146113af575f841561139d578287015190505b6113a7858261132c565b86555061140e565b601f1984166113bd866111a1565b5f5b828110156113e4578489015182556001820191506020850194506020810190506113bf565b8683101561140157848901516113fd601f891682611310565b8355505b6001600288020188555050505b505050505050565b7f4e487b71000000000000000000000000000000000000000000000000000000005f52603260045260245ffd5b7f4e487b71000000000000000000000000000000000000000000000000000000005f52601160045260245ffd5b5f61147a8261121f565b91507fffffffffffffffffffffffffffffffffffffffffffffffffffffffffffffffff82036114ac576114ab611443565b5b600182019050919050565b5f82825260208201905092915050565b7f596f7520646f6e277420686176652061636365737300000000000000000000005f82015250565b5f6114fb6015836114b7565b9150611506826114c7565b602082019050919050565b5f6020820190508181035f830152611528816114ef565b9050919050565b5f80fd5b5f80fd5b5f808585111561154a5761154961152f565b5b8386111561155b5761155a611533565b5b6001850283019150848603905094509492505050565b5f82905092915050565b5f7fffffffffffffffffffffffffffffffffffffffff00000000000000000000000082169050919050565b5f6115b18383611571565b826115bc813561157b565b925060148210156115fc576115f77fffffffffffffffffffffffffffffffffffffffff000000000000000000000000836014036008026111c2565b831692505b50509291505056fea264697066735822122043d7411f83cd6d752a3e4a331c347d63ab461c9ae5e0a0453f59b62570aff9aa64736f6c63430008140033",
  "linkReferences": {},
  "deployedLinkReferences": {}
}